:030000000208A053
:0C08A000787FE4F6D8FD7581070208009F
:07087900E4F5807FF47E012D
:10088000E4FDFCC3ED9FEC9E5015E4FBFA0BBB00AE
:0F089000010AEB647B4A70F50DBD00010C80E49A
:01089F002236
:10080000E4F9E9C3940574809480500C120879755A
:1008100080FF1208800980EAE4F9E9C39409748032
:100820009480500C1208797580F01208800980EAD3
:10083000E4F9E9C3940574809480500C120879752A
:10084000800F1208800980EAE4F9E9C394057480F6
:100850009480500C1208797580551208800980EA3E
:10086000E4F9E9C3940574809480500C12087975FA
:0808700080AA1208800980EA49
:01087800225D
:00000001FF
